{
  "_format": "hh-sol-artifact-1",
  "contractName": "TPG_NFT",
  "sourceName": "contracts/tokenToNft.sol",
  "abi": [
    {
      "inputs": [
        {
          "internalType": "address",
          "name": "_TPGToken",
          "type": "address"
        }
      ],
      "stateMutability": "nonpayable",
      "type": "constructor"
    },
    {
      "anonymous": false,
      "inputs": [
        {
          "indexed": true,
          "internalType": "address",
          "name": "owner",
          "type": "address"
        },
        {
          "indexed": true,
          "internalType": "address",
          "name": "approved",
          "type": "address"
        },
        {
          "indexed": true,
          "internalType": "uint256",
          "name": "tokenId",
          "type": "uint256"
        }
      ],
      "name": "Approval",
      "type": "event"
    },
    {
      "anonymous": false,
      "inputs": [
        {
          "indexed": true,
          "internalType": "address",
          "name": "owner",
          "type": "address"
        },
        {
          "indexed": true,
          "internalType": "address",
          "name": "operator",
          "type": "address"
        },
        {
          "indexed": false,
          "internalType": "bool",
          "name": "approved",
          "type": "bool"
        }
      ],
      "name": "ApprovalForAll",
      "type": "event"
    },
    {
      "anonymous": false,
      "inputs": [
        {
          "indexed": true,
          "internalType": "address",
          "name": "previousOwner",
          "type": "address"
        },
        {
          "indexed": true,
          "internalType": "address",
          "name": "newOwner",
          "type": "address"
        }
      ],
      "name": "OwnershipTransferred",
      "type": "event"
    },
    {
      "anonymous": false,
      "inputs": [
        {
          "indexed": true,
          "internalType": "address",
          "name": "from",
          "type": "address"
        },
        {
          "indexed": true,
          "internalType": "address",
          "name": "to",
          "type": "address"
        },
        {
          "indexed": true,
          "internalType": "uint256",
          "name": "tokenId",
          "type": "uint256"
        }
      ],
      "name": "Transfer",
      "type": "event"
    },
    {
      "inputs": [],
      "name": "TPGToken",
      "outputs": [
        {
          "internalType": "contract IERC20",
          "name": "",
          "type": "address"
        }
      ],
      "stateMutability": "view",
      "type": "function"
    },
    {
      "inputs": [
        {
          "internalType": "address",
          "name": "to",
          "type": "address"
        },
        {
          "internalType": "uint256",
          "name": "tokenId",
          "type": "uint256"
        }
      ],
      "name": "approve",
      "outputs": [],
      "stateMutability": "nonpayable",
      "type": "function"
    },
    {
      "inputs": [
        {
          "internalType": "address",
          "name": "owner",
          "type": "address"
        }
      ],
      "name": "balanceOf",
      "outputs": [
        {
          "internalType": "uint256",
          "name": "",
          "type": "uint256"
        }
      ],
      "stateMutability": "view",
      "type": "function"
    },
    {
      "inputs": [
        {
          "internalType": "uint256",
          "name": "tokenId",
          "type": "uint256"
        }
      ],
      "name": "getApproved",
      "outputs": [
        {
          "internalType": "address",
          "name": "",
          "type": "address"
        }
      ],
      "stateMutability": "view",
      "type": "function"
    },
    {
      "inputs": [
        {
          "internalType": "address",
          "name": "owner",
          "type": "address"
        },
        {
          "internalType": "address",
          "name": "operator",
          "type": "address"
        }
      ],
      "name": "isApprovedForAll",
      "outputs": [
        {
          "internalType": "bool",
          "name": "",
          "type": "bool"
        }
      ],
      "stateMutability": "view",
      "type": "function"
    },
    {
      "inputs": [],
      "name": "name",
      "outputs": [
        {
          "internalType": "string",
          "name": "",
          "type": "string"
        }
      ],
      "stateMutability": "view",
      "type": "function"
    },
    {
      "inputs": [],
      "name": "owner",
      "outputs": [
        {
          "internalType": "address",
          "name": "",
          "type": "address"
        }
      ],
      "stateMutability": "view",
      "type": "function"
    },
    {
      "inputs": [
        {
          "internalType": "uint256",
          "name": "tokenId",
          "type": "uint256"
        }
      ],
      "name": "ownerOf",
      "outputs": [
        {
          "internalType": "address",
          "name": "",
          "type": "address"
        }
      ],
      "stateMutability": "view",
      "type": "function"
    },
    {
      "inputs": [],
      "name": "rate",
      "outputs": [
        {
          "internalType": "uint256",
          "name": "",
          "type": "uint256"
        }
      ],
      "stateMutability": "view",
      "type": "function"
    },
    {
      "inputs": [],
      "name": "renounceOwnership",
      "outputs": [],
      "stateMutability": "nonpayable",
      "type": "function"
    },
    {
      "inputs": [],
      "name": "safeMint",
      "outputs": [],
      "stateMutability": "nonpayable",
      "type": "function"
    },
    {
      "inputs": [
        {
          "internalType": "address",
          "name": "from",
          "type": "address"
        },
        {
          "internalType": "address",
          "name": "to",
          "type": "address"
        },
        {
          "internalType": "uint256",
          "name": "tokenId",
          "type": "uint256"
        }
      ],
      "name": "safeTransferFrom",
      "outputs": [],
      "stateMutability": "nonpayable",
      "type": "function"
    },
    {
      "inputs": [
        {
          "internalType": "address",
          "name": "from",
          "type": "address"
        },
        {
          "internalType": "address",
          "name": "to",
          "type": "address"
        },
        {
          "internalType": "uint256",
          "name": "tokenId",
          "type": "uint256"
        },
        {
          "internalType": "bytes",
          "name": "_data",
          "type": "bytes"
        }
      ],
      "name": "safeTransferFrom",
      "outputs": [],
      "stateMutability": "nonpayable",
      "type": "function"
    },
    {
      "inputs": [
        {
          "internalType": "address",
          "name": "operator",
          "type": "address"
        },
        {
          "internalType": "bool",
          "name": "approved",
          "type": "bool"
        }
      ],
      "name": "setApprovalForAll",
      "outputs": [],
      "stateMutability": "nonpayable",
      "type": "function"
    },
    {
      "inputs": [
        {
          "internalType": "bytes4",
          "name": "interfaceId",
          "type": "bytes4"
        }
      ],
      "name": "supportsInterface",
      "outputs": [
        {
          "internalType": "bool",
          "name": "",
          "type": "bool"
        }
      ],
      "stateMutability": "view",
      "type": "function"
    },
    {
      "inputs": [],
      "name": "symbol",
      "outputs": [
        {
          "internalType": "string",
          "name": "",
          "type": "string"
        }
      ],
      "stateMutability": "view",
      "type": "function"
    },
    {
      "inputs": [
        {
          "internalType": "uint256",
          "name": "tokenId",
          "type": "uint256"
        }
      ],
      "name": "tokenURI",
      "outputs": [
        {
          "internalType": "string",
          "name": "",
          "type": "string"
        }
      ],
      "stateMutability": "view",
      "type": "function"
    },
    {
      "inputs": [
        {
          "internalType": "address",
          "name": "from",
          "type": "address"
        },
        {
          "internalType": "address",
          "name": "to",
          "type": "address"
        },
        {
          "internalType": "uint256",
          "name": "tokenId",
          "type": "uint256"
        }
      ],
      "name": "transferFrom",
      "outputs": [],
      "stateMutability": "nonpayable",
      "type": "function"
    },
    {
      "inputs": [
        {
          "internalType": "address",
          "name": "newOwner",
          "type": "address"
        }
      ],
      "name": "transferOwnership",
      "outputs": [],
      "stateMutability": "nonpayable",
      "type": "function"
    },
    {
      "inputs": [],
      "name": "withdrawToken",
      "outputs": [],
      "stateMutability": "nonpayable",
      "type": "function"
    }
  ],
  "bytecode": "0x608060405268056bc75e2d631000006008553480156200001e57600080fd5b506040516200337638038062003376833981810160405281019062000044919062000334565b6040518060400160405280600781526020017f5450475f4e4654000000000000000000000000000000000000000000000000008152506040518060400160405280600381526020017f54504700000000000000000000000000000000000000000000000000000000008152508160009080519060200190620000c89291906200021a565b508060019080519060200190620000e19291906200021a565b50505062000104620000f86200014c60201b60201c565b6200015460201b60201c565b80600760006101000a81548173ffffffffffffffffffffffffffffffffffffffff021916908373ffffffffffffffffffffffffffffffffffffffff16021790555050620003cb565b600033905090565b6000600660009054906101000a900473ffffffffffffffffffffffffffffffffffffffff16905081600660006101000a81548173ffffffffffffffffffffffffffffffffffffffff021916908373ffffffffffffffffffffffffffffffffffffffff1602179055508173ffffffffffffffffffffffffffffffffffffffff168173ffffffffffffffffffffffffffffffffffffffff167f8be0079c531659141344cd1fd0a4f28419497f9722a3daafe3b4186f6b6457e060405160405180910390a35050565b828054620002289062000395565b90600052602060002090601f0160209004810192826200024c576000855562000298565b82601f106200026757805160ff191683800117855562000298565b8280016001018555821562000298579182015b82811115620002975782518255916020019190600101906200027a565b5b509050620002a79190620002ab565b5090565b5b80821115620002c6576000816000905550600101620002ac565b5090565b600080fd5b600073ffffffffffffffffffffffffffffffffffffffff82169050919050565b6000620002fc82620002cf565b9050919050565b6200030e81620002ef565b81146200031a57600080fd5b50565b6000815190506200032e8162000303565b92915050565b6000602082840312156200034d576200034c620002ca565b5b60006200035d848285016200031d565b91505092915050565b7f4e487b7100000000000000000000000000000000000000000000000000000000600052602260045260246000fd5b60006002820490506001821680620003ae57607f821691505b60208210811415620003c557620003c462000366565b5b50919050565b612f9b80620003db6000396000f3fe608060405234801561001057600080fd5b506004361061012c5760003560e01c806370a08231116100ad578063b88d4fde11610071578063b88d4fde1461030b578063c87b56dd14610327578063ca628c7814610357578063e985e9c514610361578063f2fde38b146103915761012c565b806370a0823114610279578063715018a6146102a95780638da5cb5b146102b357806395d89b41146102d1578063a22cb465146102ef5761012c565b80632c4e722e116100f45780632c4e722e146101e757806342842e0e146102055780636352211e1461022157806365730352146102515780636871ee401461026f5761012c565b806301ffc9a71461013157806306fdde0314610161578063081812fc1461017f578063095ea7b3146101af57806323b872dd146101cb575b600080fd5b61014b60048036038101906101469190611cc2565b6103ad565b6040516101589190611d0a565b60405180910390f35b61016961048f565b6040516101769190611dbe565b60405180910390f35b61019960048036038101906101949190611e16565b610521565b6040516101a69190611e84565b60405180910390f35b6101c960048036038101906101c49190611ecb565b6105a6565b005b6101e560048036038101906101e09190611f0b565b6106be565b005b6101ef61071e565b6040516101fc9190611f6d565b60405180910390f35b61021f600480360381019061021a9190611f0b565b610724565b005b61023b60048036038101906102369190611e16565b610744565b6040516102489190611e84565b60405180910390f35b6102596107f6565b6040516102669190611fe7565b60405180910390f35b61027761081c565b005b610293600480360381019061028e9190612002565b6108e6565b6040516102a09190611f6d565b60405180910390f35b6102b161099e565b005b6102bb610a26565b6040516102c89190611e84565b60405180910390f35b6102d9610a50565b6040516102e69190611dbe565b60405180910390f35b6103096004803603810190610304919061205b565b610ae2565b005b610325600480360381019061032091906121d0565b610af8565b005b610341600480360381019061033c9190611e16565b610b5a565b60405161034e9190611dbe565b60405180910390f35b61035f610c01565b005b61037b60048036038101906103769190612253565b610dbb565b6040516103889190611d0a565b60405180910390f35b6103ab60048036038101906103a69190612002565b610e4f565b005b60007f80ac58cd000000000000000000000000000000000000000000000000000000007bffffffffffffffffffffffffffffffffffffffffffffffffffffffff1916827bffffffffffffffffffffffffffffffffffffffffffffffffffffffff1916148061047857507f5b5e139f000000000000000000000000000000000000000000000000000000007bffffffffffffffffffffffffffffffffffffffffffffffffffffffff1916827bffffffffffffffffffffffffffffffffffffffffffffffffffffffff1916145b80610488575061048782610f47565b5b9050919050565b60606000805461049e906122c2565b80601f01602080910402602001604051908101604052809291908181526020018280546104ca906122c2565b80156105175780601f106104ec57610100808354040283529160200191610517565b820191906000526020600020905b8154815290600101906020018083116104fa57829003601f168201915b5050505050905090565b600061052c82610fb1565b61056b576040517f08c379a000000000000000000000000000000000000000000000000000000000815260040161056290612366565b60405180910390fd5b6004600083815260200190815260200160002060009054906101000a900473ffffffffffffffffffffffffffffffffffffffff169050919050565b60006105b182610744565b90508073ffffffffffffffffffffffffffffffffffffffff168373ffffffffffffffffffffffffffffffffffffffff161415610622576040517f08c379a0000000000000000000000000000000000000000000000000000000008152600401610619906123f8565b60405180910390fd5b8073ffffffffffffffffffffffffffffffffffffffff1661064161101d565b73ffffffffffffffffffffffffffffffffffffffff161480610670575061066f8161066a61101d565b610dbb565b5b6106af576040517f08c379a00000000000000000000000000000000000000000000000000000000081526004016106a69061248a565b60405180910390fd5b6106b98383611025565b505050565b6106cf6106c961101d565b826110de565b61070e576040517f08c379a00000000000000000000000000000000000000000000000000000000081526004016107059061251c565b60405180910390fd5b6107198383836111bc565b505050565b60085481565b61073f83838360405180602001604052806000815250610af8565b505050565b6000806002600084815260200190815260200160002060009054906101000a900473ffffffffffffffffffffffffffffffffffffffff169050600073ffffffffffffffffffffffffffffffffffffffff168173ffffffffffffffffffffffffffffffffffffffff1614156107ed576040517f08c379a00000000000000000000000000000000000000000000000000000000081526004016107e4906125ae565b60405180910390fd5b80915050919050565b600760009054906101000a900473ffffffffffffffffffffffffffffffffffffffff1681565b600760009054906101000a900473ffffffffffffffffffffffffffffffffffffffff1673ffffffffffffffffffffffffffffffffffffffff166323b872dd33306008546040518463ffffffff1660e01b815260040161087d939291906125ce565b6020604051808303816000875af115801561089c573d6000803e3d6000fd5b505050506040513d601f19601f820116820180604052508101906108c0919061261a565b5060006108cd6009611423565b90506108d96009611431565b6108e33382611447565b50565b60008073ffffffffffffffffffffffffffffffffffffffff168273ffffffffffffffffffffffffffffffffffffffff161415610957576040517f08c379a000000000000000000000000000000000000000000000000000000000815260040161094e906126b9565b60405180910390fd5b600360008373ffffffffffffffffffffffffffffffffffffffff1673ffffffffffffffffffffffffffffffffffffffff168152602001908152602001600020549050919050565b6109a661101d565b73ffffffffffffffffffffffffffffffffffffffff166109c4610a26565b73ffffffffffffffffffffffffffffffffffffffff1614610a1a576040517f08c379a0000000000000000000000000000000000000000000000000000000008152600401610a1190612725565b60405180910390fd5b610a246000611465565b565b6000600660009054906101000a900473ffffffffffffffffffffffffffffffffffffffff16905090565b606060018054610a5f906122c2565b80601f0160208091040260200160405190810160405280929190818152602001828054610a8b906122c2565b8015610ad85780601f10610aad57610100808354040283529160200191610ad8565b820191906000526020600020905b815481529060010190602001808311610abb57829003601f168201915b5050505050905090565b610af4610aed61101d565b838361152b565b5050565b610b09610b0361101d565b836110de565b610b48576040517f08c379a0000000000000000000000000000000000000000000000000000000008152600401610b3f9061251c565b60405180910390fd5b610b5484848484611698565b50505050565b6060610b6582610fb1565b610ba4576040517f08c379a0000000000000000000000000000000000000000000000000000000008152600401610b9b906127b7565b60405180910390fd5b6000610bae6116f4565b90506000815111610bce5760405180602001604052806000815250610bf9565b80610bd88461170b565b604051602001610be9929190612813565b6040516020818303038152906040525b915050919050565b610c0961101d565b73ffffffffffffffffffffffffffffffffffffffff16610c27610a26565b73ffffffffffffffffffffffffffffffffffffffff1614610c7d576040517f08c379a0000000000000000000000000000000000000000000000000000000008152600401610c7490612725565b60405180910390fd5b600760009054906101000a900473ffffffffffffffffffffffffffffffffffffffff1673ffffffffffffffffffffffffffffffffffffffff1663a9059cbb33600760009054906101000a900473ffffffffffffffffffffffffffffffffffffffff1673ffffffffffffffffffffffffffffffffffffffff166370a08231306040518263ffffffff1660e01b8152600401610d179190611e84565b602060405180830381865afa158015610d34573d6000803e3d6000fd5b505050506040513d601f19601f82011682018060405250810190610d58919061284c565b6040518363ffffffff1660e01b8152600401610d75929190612879565b6020604051808303816000875af1158015610d94573d6000803e3d6000fd5b505050506040513d601f19601f82011682018060405250810190610db8919061261a565b50565b6000600560008473ffffffffffffffffffffffffffffffffffffffff1673ffffffffffffffffffffffffffffffffffffffff16815260200190815260200160002060008373ffffffffffffffffffffffffffffffffffffffff1673ffffffffffffffffffffffffffffffffffffffff16815260200190815260200160002060009054906101000a900460ff16905092915050565b610e5761101d565b73ffffffffffffffffffffffffffffffffffffffff16610e75610a26565b73ffffffffffffffffffffffffffffffffffffffff1614610ecb576040517f08c379a0000000000000000000000000000000000000000000000000000000008152600401610ec290612725565b60405180910390fd5b600073ffffffffffffffffffffffffffffffffffffffff168173ffffffffffffffffffffffffffffffffffffffff161415610f3b576040517f08c379a0000000000000000000000000000000000000000000000000000000008152600401610f3290612914565b60405180910390fd5b610f4481611465565b50565b60007f01ffc9a7000000000000000000000000000000000000000000000000000000007bffffffffffffffffffffffffffffffffffffffffffffffffffffffff1916827bffffffffffffffffffffffffffffffffffffffffffffffffffffffff1916149050919050565b60008073ffffffffffffffffffffffffffffffffffffffff166002600084815260200190815260200160002060009054906101000a900473ffffffffffffffffffffffffffffffffffffffff1673ffffffffffffffffffffffffffffffffffffffff1614159050919050565b600033905090565b816004600083815260200190815260200160002060006101000a81548173ffffffffffffffffffffffffffffffffffffffff021916908373ffffffffffffffffffffffffffffffffffffffff160217905550808273ffffffffffffffffffffffffffffffffffffffff1661109883610744565b73ffffffffffffffffffffffffffffffffffffffff167f8c5be1e5ebec7d5bd14f71427d1e84f3dd0314c0f7b2291e5b200ac8c7c3b92560405160405180910390a45050565b60006110e982610fb1565b611128576040517f08c379a000000000000000000000000000000000000000000000000000000000815260040161111f906129a6565b60405180910390fd5b600061113383610744565b90508073ffffffffffffffffffffffffffffffffffffffff168473ffffffffffffffffffffffffffffffffffffffff16148061117557506111748185610dbb565b5b806111b357508373ffffffffffffffffffffffffffffffffffffffff1661119b84610521565b73ffffffffffffffffffffffffffffffffffffffff16145b91505092915050565b8273ffffffffffffffffffffffffffffffffffffffff166111dc82610744565b73ffffffffffffffffffffffffffffffffffffffff1614611232576040517f08c379a000000000000000000000000000000000000000000000000000000000815260040161122990612a38565b60405180910390fd5b600073ffffffffffffffffffffffffffffffffffffffff168273ffffffffffffffffffffffffffffffffffffffff1614156112a2576040517f08c379a000000000000000000000000000000000000000000000000000000000815260040161129990612aca565b60405180910390fd5b6112ad83838361186c565b6112b8600082611025565b6001600360008573ffffffffffffffffffffffffffffffffffffffff1673ffffffffffffffffffffffffffffffffffffffff16815260200190815260200160002060008282546113089190612b19565b925050819055506001600360008473ffffffffffffffffffffffffffffffffffffffff1673ffffffffffffffffffffffffffffffffffffffff168152602001908152602001600020600082825461135f9190612b4d565b92505081905550816002600083815260200190815260200160002060006101000a81548173ffffffffffffffffffffffffffffffffffffffff021916908373ffffffffffffffffffffffffffffffffffffffff160217905550808273ffffffffffffffffffffffffffffffffffffffff168473ffffffffffffffffffffffffffffffffffffffff167fddf252ad1be2c89b69c2b068fc378daa952ba7f163c4a11628f55a4df523b3ef60405160405180910390a461141e838383611871565b505050565b600081600001549050919050565b6001816000016000828254019250508190555050565b611461828260405180602001604052806000815250611876565b5050565b6000600660009054906101000a900473ffffffffffffffffffffffffffffffffffffffff16905081600660006101000a81548173ffffffffffffffffffffffffffffffffffffffff021916908373ffffffffffffffffffffffffffffffffffffffff1602179055508173ffffffffffffffffffffffffffffffffffffffff168173ffffffffffffffffffffffffffffffffffffffff167f8be0079c531659141344cd1fd0a4f28419497f9722a3daafe3b4186f6b6457e060405160405180910390a35050565b8173ffffffffffffffffffffffffffffffffffffffff168373ffffffffffffffffffffffffffffffffffffffff16141561159a576040517f08c379a000000000000000000000000000000000000000000000000000000000815260040161159190612bef565b60405180910390fd5b80600560008573ffffffffffffffffffffffffffffffffffffffff1673ffffffffffffffffffffffffffffffffffffffff16815260200190815260200160002060008473ffffffffffffffffffffffffffffffffffffffff1673ffffffffffffffffffffffffffffffffffffffff16815260200190815260200160002060006101000a81548160ff0219169083151502179055508173ffffffffffffffffffffffffffffffffffffffff168373ffffffffffffffffffffffffffffffffffffffff167f17307eab39ab6107e8899845ad3d59bd9653f200f220920489ca2b5937696c318360405161168b9190611d0a565b60405180910390a3505050565b6116a38484846111bc565b6116af848484846118d1565b6116ee576040517f08c379a00000000000000000000000000000000000000000000000000000000081526004016116e590612c81565b60405180910390fd5b50505050565b606060405180602001604052806000815250905090565b60606000821415611753576040518060400160405280600181526020017f30000000000000000000000000000000000000000000000000000000000000008152509050611867565b600082905060005b6000821461178557808061176e90612ca1565b915050600a8261177e9190612d19565b915061175b565b60008167ffffffffffffffff8111156117a1576117a06120a5565b5b6040519080825280601f01601f1916602001820160405280156117d35781602001600182028036833780820191505090505b5090505b60008514611860576001826117ec9190612b19565b9150600a856117fb9190612d4a565b60306118079190612b4d565b60f81b81838151811061181d5761181c612d7b565b5b60200101907effffffffffffffffffffffffffffffffffffffffffffffffffffffffffffff1916908160001a905350600a856118599190612d19565b94506117d7565b8093505050505b919050565b505050565b505050565b6118808383611a59565b61188d60008484846118d1565b6118cc576040517f08c379a00000000000000000000000000000000000000000000000000000000081526004016118c390612c81565b60405180910390fd5b505050565b60006118f28473ffffffffffffffffffffffffffffffffffffffff16611c33565b15611a4c578373ffffffffffffffffffffffffffffffffffffffff1663150b7a0261191b61101d565b8786866040518563ffffffff1660e01b815260040161193d9493929190612dff565b6020604051808303816000875af192505050801561197957506040513d601f19601f820116820180604052508101906119769190612e60565b60015b6119fc573d80600081146119a9576040519150601f19603f3d011682016040523d82523d6000602084013e6119ae565b606091505b506000815114156119f4576040517f08c379a00000000000000000000000000000000000000000000000000000000081526004016119eb90612c81565b60405180910390fd5b805181602001fd5b63150b7a0260e01b7bffffffffffffffffffffffffffffffffffffffffffffffffffffffff1916817bffffffffffffffffffffffffffffffffffffffffffffffffffffffff191614915050611a51565b600190505b949350505050565b600073ffffffffffffffffffffffffffffffffffffffff168273ffffffffffffffffffffffffffffffffffffffff161415611ac9576040517f08c379a0000000000000000000000000000000000000000000000000000000008152600401611ac090612ed9565b60405180910390fd5b611ad281610fb1565b15611b12576040517f08c379a0000000000000000000000000000000000000000000000000000000008152600401611b0990612f45565b60405180910390fd5b611b1e6000838361186c565b6001600360008473ffffffffffffffffffffffffffffffffffffffff1673ffffffffffffffffffffffffffffffffffffffff1681526020019081526020016000206000828254611b6e9190612b4d565b92505081905550816002600083815260200190815260200160002060006101000a81548173ffffffffffffffffffffffffffffffffffffffff021916908373ffffffffffffffffffffffffffffffffffffffff160217905550808273ffffffffffffffffffffffffffffffffffffffff16600073ffffffffffffffffffffffffffffffffffffffff167fddf252ad1be2c89b69c2b068fc378daa952ba7f163c4a11628f55a4df523b3ef60405160405180910390a4611c2f60008383611871565b5050565b6000808273ffffffffffffffffffffffffffffffffffffffff163b119050919050565b6000604051905090565b600080fd5b600080fd5b60007fffffffff0000000000000000000000000000000000000000000000000000000082169050919050565b611c9f81611c6a565b8114611caa57600080fd5b50565b600081359050611cbc81611c96565b92915050565b600060208284031215611cd857611cd7611c60565b5b6000611ce684828501611cad565b91505092915050565b60008115159050919050565b611d0481611cef565b82525050565b6000602082019050611d1f6000830184611cfb565b92915050565b600081519050919050565b600082825260208201905092915050565b60005b83811015611d5f578082015181840152602081019050611d44565b83811115611d6e576000848401525b50505050565b6000601f19601f8301169050919050565b6000611d9082611d25565b611d9a8185611d30565b9350611daa818560208601611d41565b611db381611d74565b840191505092915050565b60006020820190508181036000830152611dd88184611d85565b905092915050565b6000819050919050565b611df381611de0565b8114611dfe57600080fd5b50565b600081359050611e1081611dea565b92915050565b600060208284031215611e2c57611e2b611c60565b5b6000611e3a84828501611e01565b91505092915050565b600073ffffffffffffffffffffffffffffffffffffffff82169050919050565b6000611e6e82611e43565b9050919050565b611e7e81611e63565b82525050565b6000602082019050611e996000830184611e75565b92915050565b611ea881611e63565b8114611eb357600080fd5b50565b600081359050611ec581611e9f565b92915050565b60008060408385031215611ee257611ee1611c60565b5b6000611ef085828601611eb6565b9250506020611f0185828601611e01565b9150509250929050565b600080600060608486031215611f2457611f23611c60565b5b6000611f3286828701611eb6565b9350506020611f4386828701611eb6565b9250506040611f5486828701611e01565b9150509250925092565b611f6781611de0565b82525050565b6000602082019050611f826000830184611f5e565b92915050565b6000819050919050565b6000611fad611fa8611fa384611e43565b611f88565b611e43565b9050919050565b6000611fbf82611f92565b9050919050565b6000611fd182611fb4565b9050919050565b611fe181611fc6565b82525050565b6000602082019050611ffc6000830184611fd8565b92915050565b60006020828403121561201857612017611c60565b5b600061202684828501611eb6565b91505092915050565b61203881611cef565b811461204357600080fd5b50565b6000813590506120558161202f565b92915050565b6000806040838503121561207257612071611c60565b5b600061208085828601611eb6565b925050602061209185828601612046565b9150509250929050565b600080fd5b600080fd5b7f4e487b7100000000000000000000000000000000000000000000000000000000600052604160045260246000fd5b6120dd82611d74565b810181811067ffffffffffffffff821117156120fc576120fb6120a5565b5b80604052505050565b600061210f611c56565b905061211b82826120d4565b919050565b600067ffffffffffffffff82111561213b5761213a6120a5565b5b61214482611d74565b9050602081019050919050565b82818337600083830152505050565b600061217361216e84612120565b612105565b90508281526020810184848401111561218f5761218e6120a0565b5b61219a848285612151565b509392505050565b600082601f8301126121b7576121b661209b565b5b81356121c7848260208601612160565b91505092915050565b600080600080608085870312156121ea576121e9611c60565b5b60006121f887828801611eb6565b945050602061220987828801611eb6565b935050604061221a87828801611e01565b925050606085013567ffffffffffffffff81111561223b5761223a611c65565b5b612247878288016121a2565b91505092959194509250565b6000806040838503121561226a57612269611c60565b5b600061227885828601611eb6565b925050602061228985828601611eb6565b9150509250929050565b7f4e487b7100000000000000000000000000000000000000000000000000000000600052602260045260246000fd5b600060028204905060018216806122da57607f821691505b602082108114156122ee576122ed612293565b5b50919050565b7f4552433732313a20617070726f76656420717565727920666f72206e6f6e657860008201527f697374656e7420746f6b656e0000000000000000000000000000000000000000602082015250565b6000612350602c83611d30565b915061235b826122f4565b604082019050919050565b6000602082019050818103600083015261237f81612343565b9050919050565b7f4552433732313a20617070726f76616c20746f2063757272656e74206f776e6560008201527f7200000000000000000000000000000000000000000000000000000000000000602082015250565b60006123e2602183611d30565b91506123ed82612386565b604082019050919050565b60006020820190508181036000830152612411816123d5565b9050919050565b7f4552433732313a20617070726f76652063616c6c6572206973206e6f74206f7760008201527f6e6572206e6f7220617070726f76656420666f7220616c6c0000000000000000602082015250565b6000612474603883611d30565b915061247f82612418565b604082019050919050565b600060208201905081810360008301526124a381612467565b9050919050565b7f4552433732313a207472616e736665722063616c6c6572206973206e6f74206f60008201527f776e6572206e6f7220617070726f766564000000000000000000000000000000602082015250565b6000612506603183611d30565b9150612511826124aa565b604082019050919050565b60006020820190508181036000830152612535816124f9565b9050919050565b7f4552433732313a206f776e657220717565727920666f72206e6f6e657869737460008201527f656e7420746f6b656e0000000000000000000000000000000000000000000000602082015250565b6000612598602983611d30565b91506125a38261253c565b604082019050919050565b600060208201905081810360008301526125c78161258b565b9050919050565b60006060820190506125e36000830186611e75565b6125f06020830185611e75565b6125fd6040830184611f5e565b949350505050565b6000815190506126148161202f565b92915050565b6000602082840312156126305761262f611c60565b5b600061263e84828501612605565b91505092915050565b7f4552433732313a2062616c616e636520717565727920666f7220746865207a6560008201527f726f206164647265737300000000000000000000000000000000000000000000602082015250565b60006126a3602a83611d30565b91506126ae82612647565b604082019050919050565b600060208201905081810360008301526126d281612696565b9050919050565b7f4f776e61626c653a2063616c6c6572206973206e6f7420746865206f776e6572600082015250565b600061270f602083611d30565b915061271a826126d9565b602082019050919050565b6000602082019050818103600083015261273e81612702565b9050919050565b7f4552433732314d657461646174613a2055524920717565727920666f72206e6f60008201527f6e6578697374656e7420746f6b656e0000000000000000000000000000000000602082015250565b60006127a1602f83611d30565b91506127ac82612745565b604082019050919050565b600060208201905081810360008301526127d081612794565b9050919050565b600081905092915050565b60006127ed82611d25565b6127f781856127d7565b9350612807818560208601611d41565b80840191505092915050565b600061281f82856127e2565b915061282b82846127e2565b91508190509392505050565b60008151905061284681611dea565b92915050565b60006020828403121561286257612861611c60565b5b600061287084828501612837565b91505092915050565b600060408201905061288e6000830185611e75565b61289b6020830184611f5e565b9392505050565b7f4f776e61626c653a206e6577206f776e657220697320746865207a65726f206160008201527f6464726573730000000000000000000000000000000000000000000000000000602082015250565b60006128fe602683611d30565b9150612909826128a2565b604082019050919050565b6000602082019050818103600083015261292d816128f1565b9050919050565b7f4552433732313a206f70657261746f7220717565727920666f72206e6f6e657860008201527f697374656e7420746f6b656e0000000000000000000000000000000000000000602082015250565b6000612990602c83611d30565b915061299b82612934565b604082019050919050565b600060208201905081810360008301526129bf81612983565b9050919050565b7f4552433732313a207472616e736665722066726f6d20696e636f72726563742060008201527f6f776e6572000000000000000000000000000000000000000000000000000000602082015250565b6000612a22602583611d30565b9150612a2d826129c6565b604082019050919050565b60006020820190508181036000830152612a5181612a15565b9050919050565b7f4552433732313a207472616e7366657220746f20746865207a65726f2061646460008201527f7265737300000000000000000000000000000000000000000000000000000000602082015250565b6000612ab4602483611d30565b9150612abf82612a58565b604082019050919050565b60006020820190508181036000830152612ae381612aa7565b9050919050565b7f4e487b7100000000000000000000000000000000000000000000000000000000600052601160045260246000fd5b6000612b2482611de0565b9150612b2f83611de0565b925082821015612b4257612b41612aea565b5b828203905092915050565b6000612b5882611de0565b9150612b6383611de0565b9250827fffffffffffffffffffffffffffffffffffffffffffffffffffffffffffffffff03821115612b9857612b97612aea565b5b828201905092915050565b7f4552433732313a20617070726f766520746f2063616c6c657200000000000000600082015250565b6000612bd9601983611d30565b9150612be482612ba3565b602082019050919050565b60006020820190508181036000830152612c0881612bcc565b9050919050565b7f4552433732313a207472616e7366657220746f206e6f6e20455243373231526560008201527f63656976657220696d706c656d656e7465720000000000000000000000000000602082015250565b6000612c6b603283611d30565b9150612c7682612c0f565b604082019050919050565b60006020820190508181036000830152612c9a81612c5e565b9050919050565b6000612cac82611de0565b91507fffffffffffffffffffffffffffffffffffffffffffffffffffffffffffffffff821415612cdf57612cde612aea565b5b600182019050919050565b7f4e487b7100000000000000000000000000000000000000000000000000000000600052601260045260246000fd5b6000612d2482611de0565b9150612d2f83611de0565b925082612d3f57612d3e612cea565b5b828204905092915050565b6000612d5582611de0565b9150612d6083611de0565b925082612d7057612d6f612cea565b5b828206905092915050565b7f4e487b7100000000000000000000000000000000000000000000000000000000600052603260045260246000fd5b600081519050919050565b600082825260208201905092915050565b6000612dd182612daa565b612ddb8185612db5565b9350612deb818560208601611d41565b612df481611d74565b840191505092915050565b6000608082019050612e146000830187611e75565b612e216020830186611e75565b612e2e6040830185611f5e565b8181036060830152612e408184612dc6565b905095945050505050565b600081519050612e5a81611c96565b92915050565b600060208284031215612e7657612e75611c60565b5b6000612e8484828501612e4b565b91505092915050565b7f4552433732313a206d696e7420746f20746865207a65726f2061646472657373600082015250565b6000612ec3602083611d30565b9150612ece82612e8d565b602082019050919050565b60006020820190508181036000830152612ef281612eb6565b9050919050565b7f4552433732313a20746f6b656e20616c7265616479206d696e74656400000000600082015250565b6000612f2f601c83611d30565b9150612f3a82612ef9565b602082019050919050565b60006020820190508181036000830152612f5e81612f22565b905091905056fea26469706673582212204a2ebc3b8e230fb889e71fc1116bf7488c044a2ea87469c2c7697c493bca2c7764736f6c634300080a0033",
  "linkReferences": {},
  "deployedLinkReferences": {}
}